:02000000804E30
:0200030001CA30
:02000B00210AC8
:0200130001EA00
:02001B00213C86
:10005000758164752D01752800752904752FFE754D
:100060002A00758921758C3C758AAF758D70758BEA
:100070007075B80075A88FD288D28AD28CD28E754E
:10008000B0FF752B14317A752B12317A752B0F3125
:100090007A752B0A317A752B07317A216FC0E0C04F
:1000A000F0C000C001C002E53275F00715F0A47879
:1000B00046F97A071A9001A693F60809E9DAF9D009
:1000C00002D001D000D0F0D0E022C0E0C0F0C000EB
:1000D000740675F04625F0F8E6B41002800575F058
:1000E00002A4F6D000D0F0D0E032C0E0C0F0C000F2
:1000F000740675F04625F0F8E6B40102800575F047
:100100000284F6D000D0F0D0E032C0E0C000C001E0
:10011000C0F0758C3C758AAFD52A18A82B882A7434
:10012000462406F5F015F0F8E6A8F086F055F060E4
:10013000021529D0F0D001D000D0E032C0E0C000DC
:1001400074462528F8E52F7590FF86A0F5900528C0
:1001500023F52FE528B40706752800752FFED0007B
:10016000D0E032C28C22753205119D316380097551
:100170003206119D3163800080FEE52BF52A74461E
:030180002406F85A
:100183007604752C00A82D188832119DE529600A84
:10019300E52C75F00715F0B5F0F2E529700280C380
:1001A300052D2203020401050204030206000007D1
:1001B300060206000008020306000001040406000C
:0D01C30000110A040A11001F1F1F1F1F1F3B
:00000001FF
