:02000000804E30
:0200030001C634
:0200130001E307
:02000B002100D2
:02001B00216C56
:10005000758164752800752FFE758921758C3C7536
:100060008AAF758D70758B7075B80075A88FD28842
:10007000D28AD28CD28E75B0FF752904752D017588
:100080002B1431AA752B1231AA752B0F31AA752B9F
:100090000A31AA752B0731AA219FC0E0C0F0C00029
:1000A000C001C002E53275F00715F0A47846F97A70
:1000B000069001D593F60809E9DAF9D002D001D00B
:1000C00000D0F0D0E022C0E0C0F0C000740675F0AF
:1000D0004625F0F8E6B41002800223F6D000D0F0F6
:1000E000D0E032C0E0C0F0C000740675F04625F0E4
:1000F000F8E6B40102800203F6D000D0F0D0E0327E
:10010000C0E0C000C001C002C0F0758C3C758AAF71
:10011000D52A4E852B2A74462406F5F015F0F8E60C
:10012000A8F086F055F060021529740614852CF0AD
:10013000B5F0028015F9744629F5F015F0FAA8F02B
:10014000E68AF0A8F0F6E91480E3E52C75F00715CF
:10015000F0B5F002800B7446252CF87400F6E60525
:100160002CD0F0D002D001D000D0E032C0E0C000EE
:0A01700074462528F8E52F7590FF6E
:10017A0086A0F590052823F52FE528B407067528EB
:10018A0000752FFED000D0E032C28C2275320511E4
:10019A009A31938009753206119A3193800080FE54
:1001AA00852B2A74462406F87604752C00A82D1887
:1001BA008832119AE529600AE52C75F00715F0B521
:1001CA00F0F2E529700280C4052D2203020401051C
:1001DA0002040302060000070602060000080203E2
:1001EA00060000010404060000110A040A11001F97
:0501FA001F1F1F1F1F65
:00000001FF
