:02000000804E30
:0200030001CA30
:0200130001EA00
:02000B00210AC8
:02001B00213B87
:10005000758164752D01752A007528007529047550
:100060002FFE758921758C3C758AAF758D70758BE7
:100070007075B80075A88FD288D28AD28CD28E754E
:10008000B0FF752B143179752B123179752B0F3127
:1000900079752B0A3179752B073179216EC0E0C053
:1000A000F0C000C001C002E53275F00715F0A47879
:1000B00046F97A071A9001A493F60809E9DAF9D00B
:1000C00002D001D000D0F0D0E022C0E0C0F0C000EB
:1000D000740675F04625F0F8E6B41002800575F058
:1000E00002A4F6D000D0F0D0E032C0E0C0F0C000F2
:1000F000740675F04625F0F8E6B40102800575F047
:100100000284F6D000D0F0D0E032C0E0C000C001E0
:10011000C0F0758C3C758AAFD52A17852B2A74469A
:100120002406F5F015F0F8E6A8F086F055F0600228
:100130001529D0F0D001D000D0E032C0E0C000746A
:10014000462528F8E52F7590FF86A0F59005282311
:10015000F52FE528B40706752800752FFED000D0CE
:10016000E032C28C22753205119D316280097532F0
:1001700006119D3162800080FE852B2A744624067C
:06018000F87604752C0066
:10018600A82D188832119DE529600AE52C75F0071F
:1001960015F0B5F0F2E529700280C4052D220302A0
:1001A6000401050204030206000007060206000019
:1001B600080203060000010404060000110A040AEE
:0801C60011001F1F1F1F1F1F66
:00000001FF
