:02000000804E30
:0200030001BF3B
:02000B002103CF
:0200130001E307
:02001B002120A2
:10005000758107752E01752800752A047530FE75A7
:100060008921758C3C758AAF758D70758B7075B8EC
:100070000075A88FD288D28AD28CD28E75B0FF75C7
:100080002C14316D752C12316D752C0F316D752C52
:100090000A316D752C07316D3163C0E0C001C002BB
:1000A000E875F00715F0A47829F97A071A1A900173
:1000B0008793F60809E9DAF9D002D001D0E022C02E
:1000C000E0C0F0C000C001740675F02925F0F8E624
:1000D000B41002800575F002A4F6D001D000D0F073
:1000E000D0E032C0E0C0F0C000740675F02925F001
:1000F000F8E6B40102800575F00284F6D000D0F075
:10010000D0E032C0E0C000C001C0F0758C3C758A00
:10011000AFD52B03852C2BD0F0D001D000D0E0320E
:10012000C0E0C00074292528F8E5307590FF86A04E
:10013000F590052823F530E528B4070675280075E5
:1001400030FED000D0E032752D00A82E18119A2272
:1001500074292406F8760422C28C227805119A317B
:100160005880087806119A3158800080FE852C2B23
:100170003150314780F7E52A6005E52DB407F7E5F2
:010180002A54
:10018100B40000052E22030204010000040302064C
:100191000000070602060000080203060000010431
:1001A10004060000110A040A11001F1F1F1F1F1F50
:00000001FF
