:02000000804E30
:0200030001C733
:0200130001E406
:02000B002101D1
:02001B00213290
:10005000758164752800752FFE758921758C3C7536
:100060008AAF758D70758B7075B80075A88FD28842
:10007000D28AD28CD28E75B0FF752904752D017588
:100080002B143170752B123170752B0F3170752B4D
:100090000A3170752B0731702165C0E0C0F0C000D7
:1000A000C001C002E53275F00715F0A47846F97A70
:1000B000071A90019B93F60809E9DAF9D002D001FA
:1000C000D000D0F0D0E022C0E0C0F0C000740675CF
:1000D000F04625F0F8E6B41002800223F6D000D0F6
:1000E000F0D0E032C0E0C0F0C000740675F04625E4
:1000F000F0F8E6B40102800203F6D000D0F0D0E0C0
:1001000032C0E0C000C001C0F0758C3C758AAFD52C
:100110002A17852B2A74462406F5F015F0F8E6A870
:10012000F086F055F060021529D0F0D001D000D053
:10013000E032C0E0C00074462528F8E52F7590FF36
:1001400086A0F590052823F52FE528B40706752825
:1001500000752FFED000D0E032C28C22753205111E
:100160009A31598009753206119A3159800080FE02
:10017000852B2A74462406F87604752C00A82D18C1
:020180008832C3
:10018200119AE529600AE52C75F00715F0B5F0F231
:10019200E529700280C4052D220302040105020430
:1001A200030206000007060206000008020306001A
:1001B20000010404060000110A040A11001F1F1F97
:0301C2001F1F1FDD
:00000001FF
